{
  "contractName": "BancorConverterFactory",
  "abi": [
    {
      "inputs": [],
      "payable": false,
      "stateMutability": "nonpayable",
      "type": "constructor"
    },
    {
      "anonymous": false,
      "inputs": [
        {
          "indexed": true,
          "name": "_converter",
          "type": "address"
        },
        {
          "indexed": true,
          "name": "_owner",
          "type": "address"
        }
      ],
      "name": "NewConverter",
      "type": "event"
    },
    {
      "constant": false,
      "inputs": [
        {
          "name": "_token",
          "type": "address"
        },
        {
          "name": "_registry",
          "type": "address"
        },
        {
          "name": "_maxConversionFee",
          "type": "uint32"
        },
        {
          "name": "_connectorToken",
          "type": "address"
        },
        {
          "name": "_connectorWeight",
          "type": "uint32"
        }
      ],
      "name": "createConverter",
      "outputs": [
        {
          "name": "converterAddress",
          "type": "address"
        }
      ],
      "payable": false,
      "stateMutability": "nonpayable",
      "type": "function"
    }
  ],
  "bytecode": "0x608060405234801561001057600080fd5b50614c57806100206000396000f3006080604052600436106100405763ffffffff7c0100000000000000000000000000000000000000000000000000000000600035041663034efaeb8114610045575b600080fd5b34801561005157600080fd5b5061008f73ffffffffffffffffffffffffffffffffffffffff60043581169060243581169063ffffffff6044358116916064351690608435166100b8565b6040805173ffffffffffffffffffffffffffffffffffffffff9092168252519081900360200190f35b600080600087878787876100ca61028c565b73ffffffffffffffffffffffffffffffffffffffff9586168152938516602085015263ffffffff9283166040808601919091529190941660608401529216608082015290519081900360a001906000f08015801561012c573d6000803e3d6000fd5b50604080517ff2fde38b000000000000000000000000000000000000000000000000000000008152336004820152905191935073ffffffffffffffffffffffffffffffffffffffff84169163f2fde38b9160248082019260009290919082900301818387803b15801561019e57600080fd5b505af11580156101b2573d6000803e3d6000fd5b5050604080517fe4edf852000000000000000000000000000000000000000000000000000000008152336004820152905173ffffffffffffffffffffffffffffffffffffffff8616935063e4edf8529250602480830192600092919082900301818387803b15801561022357600080fd5b505af1158015610237573d6000803e3d6000fd5b505060405184935033925073ffffffffffffffffffffffffffffffffffffffff841691507fb54eb8f70476910bea510b4ca1ece1fdb11eeb345b0d46221dd40ba86e64953390600090a3979650505050505050565b60405161498f8061029d83390190560060c0604052600360808190527f302e39000000000000000000000000000000000000000000000000000000000060a0908152620000409160059190620005c0565b506040805180820190915260068082527f62616e636f7200000000000000000000000000000000000000000000000000006020909201918252620000859181620005c0565b50600c80546001606860020a0319166c010000000000000000000000001790556040805180820190915260058082527f4b616e64790000000000000000000000000000000000000000000000000000006020909201918252620000eb91600e91620005c0565b50348015620000f957600080fd5b5060405160a0806200498f8339810160409081528151602083015191830151606084015160809094015160008054600160a060020a03191633178155929491928580600160a060020a03811615156200015157600080fd5b5060028054600160a060020a03928316600160a060020a03199182161790915560038054909116331790558590811615156200018c57600080fd5b8460008163ffffffff1610158015620001ae5750620f424063ffffffff821611155b1515620001ba57600080fd5b60078054600160a060020a031916600160a060020a038981169190911791829055604080517f21f8a7210000000000000000000000000000000000000000000000000000000081527f436f6e74726163744665617475726573000000000000000000000000000000006004820152905192909116916321f8a721916024808201926020929091908290030181600087803b1580156200025857600080fd5b505af11580156200026d573d6000803e3d6000fd5b505050506040513d60208110156200028457600080fd5b50519250600160a060020a038316156200031b57604080517f2c7077c000000000000000000000000000000000000000000000000000000000815260016004820181905260248201529051600160a060020a03851691632c7077c091604480830192600092919082900301818387803b1580156200030157600080fd5b505af115801562000316573d6000803e3d6000fd5b505050505b600c805467ffffffff00000000191664010000000063ffffffff891602179055600160a060020a038516156200036257620003628585600064010000000062000370810204565b505050505050505062000665565b600054600160a060020a031633146200038557fe5b600254604080517f8da5cb5b00000000000000000000000000000000000000000000000000000000815290513092600160a060020a031691638da5cb5b9160048083019260209291908290030181600087803b158015620003e557600080fd5b505af1158015620003fa573d6000803e3d6000fd5b505050506040513d60208110156200041157600080fd5b5051600160a060020a031614156200042557fe5b82600160a060020a03811615156200043c57600080fd5b83600160a060020a0381163014156200045457600080fd5b8360008163ffffffff16118015620004755750620f424063ffffffff821611155b15156200048157600080fd5b600254600160a060020a03878116911614801590620004c65750600160a060020a0386166000908152600b60205260409020600101546601000000000000900460ff16155b8015620004e55750600c54620f424063ffffffff918216870190911611155b1515620004f157600080fd5b505050600160a060020a039092166000818152600b602052604081208181556001908101805466ff0000000000001965ff0000000000199715156401000000000264ff000000001963ffffffff808a1663ffffffff19958616179190911691909117989098166501000000000017166601000000000000179091556009805492830181559092527f6e1540171b6c0c960b71a7020d9f60077f6af931a8bbf590da0223dacf75c7af018054600160a060020a031916909217909155600c80548085169093019093169116179055565b828054600181600116156101000203166002900490600052602060002090601f016020900481019282601f106200060357805160ff191683800117855562000633565b8280016001018555821562000633579182015b828111156200063357825182559160200191906001019062000616565b506200064192915062000645565b5090565b6200066291905b808211156200064157600081556001016200064c565b90565b61431a80620006756000396000f3006080604052600436106102715763ffffffff7c01000000000000000000000000000000000000000000000000000000006000350416630ca7892381146102e75780630e53aae91461032857806319b640151461038a5780631e1401f8146103cb57806321e6b53d146104145780632274256414610442578063228d2820146104aa5780632a2e2f0c146104c457806338a5e016146104fe5780633aa0145a146105135780633e8ff43f146105315780633f4d2fc2146105bb57806341a5b33d146105f7578063429060291461062e578063481c6a75146106435780634af80f0e146106585780634c2aaf95146106865780634e2280c4146106df578063514385be146106f457806354fd4d5014610727578063579cd3ca1461073c5780635e35359e1461076a5780635e5144eb146107a15780636d7bd3fc146107db57806371f52bf3146107f057806372b44b2c1461081c57806375892cf11461084d57806379ba5097146108875780637b1039991461089c57806383315b6e146108b157806385d5e631146108c65780638da5cb5b146108e05780638e3047e0146108f55780639232494e1461092c57806392d1abb7146109415780639396a7f01461095657806394c275ad1461096b578063a2c4c33614610980578063a91ee0dc146109b1578063bf754558146109df578063c45d3d9214610a08578063c8c2fe6c14610a1d578063d395ee0f14610a32578063d4ee1d9014610a87578063d895951214610a9c578063e4edf85214610aca578063e7ee85a514610af8578063ecbca55d14610b10578063f0843ba914610b2e578063f2fde38b14610b7f578063fb8f0f5914610bad578063fc0c546a14610bc2575b6102e4600a8054806020026020016040519081016040528092919081815260200182805480156102d757602002820191906000526020600020905b815473ffffffffffffffffffffffffffffffffffffffff1681526001909101906020018083116102ac575b5050505050346001610bd7565b50005b3480156102f357600080fd5b5061032673ffffffffffffffffffffffffffffffffffffffff6004351663ffffffff602435166044351515606435610c22565b005b34801561033457600080fd5b5061035673ffffffffffffffffffffffffffffffffffffffff60043516610d8e565b6040805195865263ffffffff9094166020860152911515848401521515606084015215156080830152519081900360a00190f35b34801561039657600080fd5b506103a2600435610dd4565b6040805173ffffffffffffffffffffffffffffffffffffffff9092168252519081900360200190f35b3480156103d757600080fd5b5061040273ffffffffffffffffffffffffffffffffffffffff60043581169060243516604435610e09565b60408051918252519081900360200190f35b34801561042057600080fd5b5061032673ffffffffffffffffffffffffffffffffffffffff60043516610ea7565b6040805160206004803580820135838102808601850190965280855261040295369593946024949385019291829185019084908082843750949750508435955050506020830135926040810135925060ff606082013516915060808101359060a00135610f57565b3480156104b657600080fd5b506103266004351515611417565b3480156104d057600080fd5b5061040273ffffffffffffffffffffffffffffffffffffffff6004358116906024351660443560643561149e565b34801561050a57600080fd5b50610326611ad8565b34801561051f57600080fd5b5061040260043560ff60243516611b99565b34801561053d57600080fd5b50610546611bf5565b6040805160208082528351818301528351919283929083019185019080838360005b83811015610580578181015183820152602001610568565b50505050905090810190601f1680156105ad5780820380516001836020036101000a031916815260200191505b509250505060405180910390f35b3480156105c757600080fd5b5061032673ffffffffffffffffffffffffffffffffffffffff6004351663ffffffff602435166044351515611ca1565b34801561060357600080fd5b5061032673ffffffffffffffffffffffffffffffffffffffff60043581169060243516604435611fcb565b34801561063a57600080fd5b506103a261208c565b34801561064f57600080fd5b506103a26120a8565b34801561066457600080fd5b5061032673ffffffffffffffffffffffffffffffffffffffff600435166120c4565b34801561069257600080fd5b506040805160206004803580820135601f81018490048402850184019095528484526103269436949293602493928401919081908401838280828437509497506121519650505050505050565b3480156106eb57600080fd5b50610326612233565b34801561070057600080fd5b5061032673ffffffffffffffffffffffffffffffffffffffff600435166024351515612264565b34801561073357600080fd5b50610546612329565b34801561074857600080fd5b506107516123a2565b6040805163ffffffff9092168252519081900360200190f35b34801561077657600080fd5b5061032673ffffffffffffffffffffffffffffffffffffffff600435811690602435166044356123ba565b3480156107ad57600080fd5b5061040273ffffffffffffffffffffffffffffffffffffffff60043581169060243516604435606435612524565b3480156107e757600080fd5b50610402612532565b3480156107fc57600080fd5b50610805612556565b6040805161ffff9092168252519081900360200190f35b34801561082857600080fd5b5061040273ffffffffffffffffffffffffffffffffffffffff6004351660243561255d565b34801561085957600080fd5b5061040273ffffffffffffffffffffffffffffffffffffffff600435811690602435166044356064356128dd565b34801561089357600080fd5b50610326612998565b3480156108a857600080fd5b506103a2612a52565b3480156108bd57600080fd5b50610402612a6e565b3480156108d257600080fd5b506103266004351515612a92565b3480156108ec57600080fd5b506103a2612b27565b34801561090157600080fd5b5061040273ffffffffffffffffffffffffffffffffffffffff60043581169060243516604435612b43565b34801561093857600080fd5b50610402612ec8565b34801561094d57600080fd5b50610402612eec565b34801561096257600080fd5b50610402612ef1565b34801561097757600080fd5b50610751612ef7565b34801561098c57600080fd5b5061040273ffffffffffffffffffffffffffffffffffffffff60043516602435612f0b565b3480156109bd57600080fd5b5061032673ffffffffffffffffffffffffffffffffffffffff60043516613292565b3480156109eb57600080fd5b506109f4613343565b604080519115158252519081900360200190f35b348015610a1457600080fd5b506103a261335c565b348015610a2957600080fd5b50610326613378565b348015610a3e57600080fd5b5060408051602060048035808201358381028086018501909652808552610326953695939460249493850192918291850190849080828437509497506134349650505050505050565b348015610a9357600080fd5b506103a261349d565b348015610aa857600080fd5b5061040273ffffffffffffffffffffffffffffffffffffffff600435166134b9565b348015610ad657600080fd5b5061032673ffffffffffffffffffffffffffffffffffffffff600435166135e4565b348015610b0457600080fd5b506103a260043561369b565b348015610b1c57600080fd5b5061032663ffffffff600435166136a9565b6040805160206004803580820135838102808601850190965280855261040295369593946024949385019291829185019084908082843750949750508435955050506020909201359150610bd79050565b348015610b8b57600080fd5b5061032673ffffffffffffffffffffffffffffffffffffffff600435166137bd565b348015610bb957600080fd5b5061054661384d565b348015610bce57600080fd5b506103a26138c6565b60008360028151118015610bed57506015815111155b8015610bfe57508051600290066001145b1515610c0957600080fd5b610c198585856000808080610f57565b95945050505050565b6000805473ffffffffffffffffffffffffffffffffffffffff163314610c4457fe5b73ffffffffffffffffffffffffffffffffffffffff85166000908152600b602052604090206001015485906601000000000000900460ff161515610c8757600080fd5b8460008163ffffffff16118015610ca75750620f424063ffffffff821611155b1515610cb257600080fd5b73ffffffffffffffffffffffffffffffffffffffff87166000908152600b602052604090206001810154600c54919450620f424063ffffffff918216928216929092038801161115610d0357600080fd5b5050600181018054600c805463ffffffff92831681841603880183167fffffffffffffffffffffffffffffffffffffffffffffffffffffffff00000000918216179091558254951515640100000000027fffffffffffffffffffffffffffffffffffffffffffffffffffffff00ffffffff929097169516949094179390931693909317909155905550565b600b602052600090815260409020805460019091015463ffffffff81169060ff640100000000820481169165010000000000810482169166010000000000009091041685565b6009805482908110610de257fe5b60009182526020909120015473ffffffffffffffffffffffffffffffffffffffff16905081565b600073ffffffffffffffffffffffffffffffffffffffff8481169084161415610e3157600080fd5b60025473ffffffffffffffffffffffffffffffffffffffff84811691161415610e6557610e5e8483612f0b565b9050610ea0565b60025473ffffffffffffffffffffffffffffffffffffffff85811691161415610e9257610e5e838361255d565b610e9d848484612b43565b90505b9392505050565b60005473ffffffffffffffffffffffffffffffffffffffff163314610ec857fe5b600254604080517ff2fde38b00000000000000000000000000000000000000000000000000000000815273ffffffffffffffffffffffffffffffffffffffff84811660048301529151919092169163f2fde38b91602480830192600092919082900301818387803b158015610f3c57600080fd5b505af1158015610f50573d6000803e3d6000fd5b5050505050565b60008060008960028151118015610f7057506015815111155b8015610f8157508051600290066001145b1515610f8c57600080fd5b8a6000815181101515610f9b57fe5b6020908102909101810151600754604080517f21f8a7210000000000000000000000000000000000000000000000000000000081527f42616e636f724e6574776f726b000000000000000000000000000000000000006004820152905192965073ffffffffffffffffffffffffffffffffffffffff909116926321f8a721926024808401938290030181600087803b15801561103657600080fd5b505af115801561104a573d6000803e3d6000fd5b505050506040513d602081101561106057600080fd5b505191503415156112b45760025473ffffffffffffffffffffffffffffffffffffffff8481169116141561120157600254604080517fa24835d1000000000000000000000000000000000000000000000000000000008152336004820152602481018d9052905173ffffffffffffffffffffffffffffffffffffffff9092169163a24835d19160448082019260009290919082900301818387803b15801561110757600080fd5b505af115801561111b573d6000803e3d6000fd5b50505050600260009054906101000a900473ffffffffffffffffffffffffffffffffffffffff1673ffffffffffffffffffffffffffffffffffffffff1663867904b4838c6040518363ffffffff167c0100000000000000000000000000000000000000000000000000000000028152600401808373ffffffffffffffffffffffffffffffffffffffff1673ffffffffffffffffffffffffffffffffffffffff16815260200182815260200192505050600060405180830381600087803b1580156111e457600080fd5b505af11580156111f8573d6000803e3d6000fd5b505050506112b4565b604080517f23b872dd00000000000000000000000000000000000000000000000000000000815233600482015273ffffffffffffffffffffffffffffffffffffffff8481166024830152604482018d90529151918516916323b872dd916064808201926020929091908290030181600087803b15801561128057600080fd5b505af1158015611294573d6000803e3d6000fd5b505050506040513d60208110156112aa57600080fd5b505115156112b457fe5b8173ffffffffffffffffffffffffffffffffffffffff1663db427f68348d8d8d338e8e8e8e6040518a63ffffffff167c010000000000000000000000000000000000000000000000000000000002815260040180806020018981526020018881526020018773ffffffffffffffffffffffffffffffffffffffff1673ffffffffffffffffffffffffffffffffffffffff1681526020018681526020018560ff1660ff1681526020018460001916600019168152602001836000191660001916815260200182810382528a818151815260200191508051906020019060200280838360005b838110156113b0578181015183820152602001611398565b5050505090500199505050505050505050506020604051808303818588803b1580156113db57600080fd5b505af11580156113ef573d6000803e3d6000fd5b50505050506040513d602081101561140657600080fd5b50519b9a5050505050505050505050565b60005473ffffffffffffffffffffffffffffffffffffffff16331480611454575060035473ffffffffffffffffffffffffffffffffffffffff1633145b151561145f57600080fd5b600c80547fffffffffffffffffffffffffffffffffffffff00ffffffffffffffffffffffff1691156c0100000000000000000000000002919091179055565b600754604080517f21f8a7210000000000000000000000000000000000000000000000000000000081527f42616e636f724e6574776f726b000000000000000000000000000000000000006004820152905160009283928392839283928392839273ffffffffffffffffffffffffffffffffffffffff16916321f8a72191602480830192602092919082900301818787803b15801561153c57600080fd5b505af1158015611550573d6000803e3d6000fd5b505050506040513d602081101561156657600080fd5b505190503373ffffffffffffffffffffffffffffffffffffffff82161461158c57600080fd5b600c546c01000000000000000000000000900460ff1615156115aa57fe5b87600081116115b857600080fd5b73ffffffffffffffffffffffffffffffffffffffff8c8116908c1614156115de57600080fd5b60025473ffffffffffffffffffffffffffffffffffffffff8c8116911614156116135761160c8c8b8b6138e2565b9750611ac9565b60025473ffffffffffffffffffffffffffffffffffffffff8d8116911614156116415761160c8b8b8b613bf9565b61164c8c8c8c612b43565b9650861580159061165d5750888710155b151561166857600080fd5b73ffffffffffffffffffffffffffffffffffffffff8c166000908152600b602052604090206001810154909650640100000000900460ff16156116b45785546116b1908b61409a565b86555b73ffffffffffffffffffffffffffffffffffffffff8b166000908152600b602052604090206001810154909550640100000000900460ff16156117005784546116fd90886140a9565b85555b6117098b6134b9565b935083871061171457fe5b604080517f23b872dd000000000000000000000000000000000000000000000000000000008152336004820152306024820152604481018c9052905173ffffffffffffffffffffffffffffffffffffffff8e16916323b872dd9160648083019260209291908290030181600087803b15801561178f57600080fd5b505af11580156117a3573d6000803e3d6000fd5b505050506040513d60208110156117b957600080fd5b505115156117c357fe5b604080517fa9059cbb00000000000000000000000000000000000000000000000000000000815233600482015260248101899052905173ffffffffffffffffffffffffffffffffffffffff8d169163a9059cbb9160448083019260209291908290030181600087803b15801561183857600080fd5b505af115801561184c573d6000803e3d6000fd5b505050506040513d602081101561186257600080fd5b5051151561186c57fe5b6118808761187b896002611b99565b6140a9565b925061188f8c8c8c8a876140bb565b8b73ffffffffffffffffffffffffffffffffffffffff167f8a6a7f53b3c8fa1dc4b83e3f1be668c1b251ff8d44cdcb83eb3acec3fec6a788600260009054906101000a900473ffffffffffffffffffffffffffffffffffffffff1673ffffffffffffffffffffffffffffffffffffffff166318160ddd6040518163ffffffff167c0100000000000000000000000000000000000000000000000000000000028152600401602060405180830381600087803b15801561194d57600080fd5b505af1158015611961573d6000803e3d6000fd5b505050506040513d602081101561197757600080fd5b50516119828f6134b9565b60018a015460408051938452602084019290925263ffffffff1682820152519081900360600190a28a73ffffffffffffffffffffffffffffffffffffffff167f8a6a7f53b3c8fa1dc4b83e3f1be668c1b251ff8d44cdcb83eb3acec3fec6a788600260009054906101000a900473ffffffffffffffffffffffffffffffffffffffff1673ffffffffffffffffffffffffffffffffffffffff166318160ddd6040518163ffffffff167c0100000000000000000000000000000000000000000000000000000000028152600401602060405180830381600087803b158015611a6857600080fd5b505af1158015611a7c573d6000803e3d6000fd5b505050506040513d6020811015611a9257600080fd5b5051611a9d8e6134b9565b600189015460408051938452602084019290925263ffffffff1682820152519081900360600190a28697505b50505050505050949350505050565b60005473ffffffffffffffffffffffffffffffffffffffff163314611af957fe5b600260009054906101000a900473ffffffffffffffffffffffffffffffffffffffff1673ffffffffffffffffffffffffffffffffffffffff166379ba50976040518163ffffffff167c0100000000000000000000000000000000000000000000000000000000028152600401600060405180830381600087803b158015611b7f57600080fd5b505af1158015611b93573d6000803e3d6000fd5b50505050565b60008160ff16620f42400a67ffffffffffffffff16611be4848460ff16600c60089054906101000a900463ffffffff1663ffffffff16620f4240030a67ffffffffffffffff1661414c565b811515611bed57fe5b049392505050565b6006805460408051602060026001851615610100027fffffffffffffffffffffffffffffffffffffffffffffffffffffffffffffffff0190941693909304601f81018490048402820184019092528181529291830182828015611c995780601f10611c6e57610100808354040283529160200191611c99565b820191906000526020600020905b815481529060010190602001808311611c7c57829003601f168201915b505050505081565b60005473ffffffffffffffffffffffffffffffffffffffff163314611cc257fe5b600254604080517f8da5cb5b0000000000000000000000000000000000000000000000000000000081529051309273ffffffffffffffffffffffffffffffffffffffff1691638da5cb5b9160048083019260209291908290030181600087803b158015611d2e57600080fd5b505af1158015611d42573d6000803e3d6000fd5b505050506040513d6020811015611d5857600080fd5b505173ffffffffffffffffffffffffffffffffffffffff161415611d7857fe5b8273ffffffffffffffffffffffffffffffffffffffff81161515611d9b57600080fd5b8373ffffffffffffffffffffffffffffffffffffffff8116301415611dbf57600080fd5b8360008163ffffffff16118015611ddf5750620f424063ffffffff821611155b1515611dea57600080fd5b60025473ffffffffffffffffffffffffffffffffffffffff878116911614801590611e48575073ffffffffffffffffffffffffffffffffffffffff86166000908152600b60205260409020600101546601000000000000900460ff16155b8015611e665750600c54620f424063ffffffff918216870190911611155b1515611e7157600080fd5b50505073ffffffffffffffffffffffffffffffffffffffff9092166000818152600b60205260408120818155600190810180547fffffffffffffffffffffffffffffffffffffffffffffffffff00ffffffffffff7fffffffffffffffffffffffffffffffffffffffffffffffffffff00ffffffffff971515640100000000027fffffffffffffffffffffffffffffffffffffffffffffffffffffff00ffffffff63ffffffff808a167fffffffffffffffffffffffffffffffffffffffffffffffffffffffff00000000958616179190911691909117989098166501000000000017166601000000000000179091556009805492830181559092527f6e1540171b6c0c960b71a7020d9f60077f6af931a8bbf590da0223dacf75c7af0180547fffffffffffffffffffffffff000000000000000000000000000000000000000016909217909155600c80548085169093019093169116179055565b60005473ffffffffffffffffffffffffffffffffffffffff163314611fec57fe5b600254604080517f5e35359e00000000000000000000000000000000000000000000000000000000815273ffffffffffffffffffffffffffffffffffffffff868116600483015285811660248301526044820185905291519190921691635e35359e91606480830192600092919082900301818387803b15801561206f57600080fd5b505af1158015612083573d6000803e3d6000fd5b50505050505050565b60045473ffffffffffffffffffffffffffffffffffffffff1681565b60035473ffffffffffffffffffffffffffffffffffffffff1681565b60005473ffffffffffffffffffffffffffffffffffffffff1633146120e557fe5b8073ffffffffffffffffffffffffffffffffffffffff811630141561210957600080fd5b50600880547fffffffffffffffffffffffff00000000000000000000000000000000000000001673ffffffffffffffffffffffffffffffffffffffff92909216919091179055565b805161216490600e906020840190614170565b50604080516020808252600e805460027fffffffffffffffffffffffffffffffffffffffffffffffffffffffffffffffff61010060018416150201909116049183018290527f246b16c791df20fee0d3976fb49880b0f1b6796e52f4cc52bcb3652cfa686c3a939092918291820190849080156122225780601f106121f757610100808354040283529160200191612222565b820191906000526020600020905b81548152906001019060200180831161220557829003601f168201915b50509250505060405180910390a150565b60005473ffffffffffffffffffffffffffffffffffffffff16331461225457fe5b6000612261600a826141ee565b50565b60005473ffffffffffffffffffffffffffffffffffffffff16331461228557fe5b73ffffffffffffffffffffffffffffffffffffffff82166000908152600b602052604090206001015482906601000000000000900460ff1615156122c857600080fd5b5073ffffffffffffffffffffffffffffffffffffffff919091166000908152600b6020526040902060010180547fffffffffffffffffffffffffffffffffffffffffffffffffffff00ffffffffff1691156501000000000002919091179055565b6005805460408051602060026001851615610100027fffffffffffffffffffffffffffffffffffffffffffffffffffffffffffffffff0190941693909304601f81018490048402820184019092528181529291830182828015611c995780601f10611c6e57610100808354040283529160200191611c99565b600c5468010000000000000000900463ffffffff1681565b60005473ffffffffffffffffffffffffffffffffffffffff1633146123db57fe5b8273ffffffffffffffffffffffffffffffffffffffff811615156123fe57600080fd5b8273ffffffffffffffffffffffffffffffffffffffff8116151561242157600080fd5b8373ffffffffffffffffffffffffffffffffffffffff811630141561244557600080fd5b8573ffffffffffffffffffffffffffffffffffffffff1663a9059cbb86866040518363ffffffff167c0100000000000000000000000000000000000000000000000000000000028152600401808373ffffffffffffffffffffffffffffffffffffffff1673ffffffffffffffffffffffffffffffffffffffff16815260200182815260200192505050602060405180830381600087803b1580156124e857600080fd5b505af11580156124fc573d6000803e3d6000fd5b505050506040513d602081101561251257600080fd5b5051151561251c57fe5b505050505050565b6000610c198585858561149e565b7f42616e636f72466f726d756c610000000000000000000000000000000000000081565b6009545b90565b6000806000806000803073ffffffffffffffffffffffffffffffffffffffff16600260009054906101000a900473ffffffffffffffffffffffffffffffffffffffff1673ffffffffffffffffffffffffffffffffffffffff16638da5cb5b6040518163ffffffff167c0100000000000000000000000000000000000000000000000000000000028152600401602060405180830381600087803b15801561260357600080fd5b505af1158015612617573d6000803e3d6000fd5b505050506040513d602081101561262d57600080fd5b505173ffffffffffffffffffffffffffffffffffffffff161461264c57fe5b73ffffffffffffffffffffffffffffffffffffffff88166000908152600b602052604090206001015488906601000000000000900460ff16151561268f57600080fd5b73ffffffffffffffffffffffffffffffffffffffff808a166000908152600b6020908152604080832060025482517f18160ddd0000000000000000000000000000000000000000000000000000000081529251919b50909416936318160ddd93600480840194938390030190829087803b15801561270c57600080fd5b505af1158015612720573d6000803e3d6000fd5b505050506040513d602081101561273657600080fd5b50519450612743896134b9565b600754604080517f21f8a7210000000000000000000000000000000000000000000000000000000081527f42616e636f72466f726d756c61000000000000000000000000000000000000006004820152905192965073ffffffffffffffffffffffffffffffffffffffff909116916321f8a721916024808201926020929091908290030181600087803b1580156127d957600080fd5b505af11580156127ed573d6000803e3d6000fd5b505050506040513d602081101561280357600080fd5b50516001870154604080517f49f9b0f7000000000000000000000000000000000000000000000000000000008152600481018990526024810188905263ffffffff9092166044830152606482018b90525191945073ffffffffffffffffffffffffffffffffffffffff8516916349f9b0f7916084808201926020929091908290030181600087803b15801561289757600080fd5b505af11580156128ab573d6000803e3d6000fd5b505050506040513d60208110156128c157600080fd5b505191506128d0826001611b99565b9998505050505050505050565b6040805160608101825273ffffffffffffffffffffffffffffffffffffffff80871682526002548116602083015285169181019190915260009061292590600d906003614212565b50610c19600d80548060200260200160405190810160405280929190818152602001828054801561298c57602002820191906000526020600020905b815473ffffffffffffffffffffffffffffffffffffffff168152600190910190602001808311612961575b50505050508484610bd7565b60015473ffffffffffffffffffffffffffffffffffffffff1633146129bc57600080fd5b6001546000805460405173ffffffffffffffffffffffffffffffffffffffff93841693909116917f343765429aea5a34b3ff6a3785a98a5abb2597aca87bfbb58632c173d585373a91a360018054600080547fffffffffffffffffffffffff000000000000000000000000000000000000000090811673ffffffffffffffffffffffffffffffffffffffff841617909155169055565b60075473ffffffffffffffffffffffffffffffffffffffff1681565b7f436f6e747261637446656174757265730000000000000000000000000000000081565b60005473ffffffffffffffffffffffffffffffffffffffff163314612ab357fe5b600254604080517f1608f18f0000000000000000000000000000000000000000000000000000000081528315156004820152905173ffffffffffffffffffffffffffffffffffffffff90921691631608f18f9160248082019260009290919082900301818387803b158015610f3c57600080fd5b60005473ffffffffffffffffffffffffffffffffffffffff1681565b60008060008060008060003073ffffffffffffffffffffffffffffffffffffffff16600260009054906101000a900473ffffffffffffffffffffffffffffffffffffffff1673ffffffffffffffffffffffffffffffffffffffff16638da5cb5b6040518163ffffffff167c0100000000000000000000000000000000000000000000000000000000028152600401602060405180830381600087803b158015612beb57600080fd5b505af1158015612bff573d6000803e3d6000fd5b505050506040513d6020811015612c1557600080fd5b505173ffffffffffffffffffffffffffffffffffffffff1614612c3457fe5b73ffffffffffffffffffffffffffffffffffffffff8a166000908152600b60205260409020600101548a906601000000000000900460ff161515612c7757600080fd5b73ffffffffffffffffffffffffffffffffffffffff8a166000908152600b60205260409020600101548a906601000000000000900460ff161515612cba57600080fd5b73ffffffffffffffffffffffffffffffffffffffff8c81166000908152600b6020526040808220928e16825290206001810154919950975065010000000000900460ff161515612d0957600080fd5b612d128c6134b9565b9550612d1d8b6134b9565b600754604080517f21f8a7210000000000000000000000000000000000000000000000000000000081527f42616e636f72466f726d756c61000000000000000000000000000000000000006004820152905192975073ffffffffffffffffffffffffffffffffffffffff909116916321f8a721916024808201926020929091908290030181600087803b158015612db357600080fd5b505af1158015612dc7573d6000803e3d6000fd5b505050506040513d6020811015612ddd57600080fd5b505160018981015490890154604080517f65098bb3000000000000000000000000000000000000000000000000000000008152600481018b905263ffffffff9384166024820152604481018a9052929091166064830152608482018d90525191955073ffffffffffffffffffffffffffffffffffffffff8616916365098bb39160a4808201926020929091908290030181600087803b158015612e7f57600080fd5b505af1158015612e93573d6000803e3d6000fd5b505050506040513d6020811015612ea957600080fd5b50519250612eb8836002611b99565b9c9b505050505050505050505050565b7f42616e636f724e6574776f726b0000000000000000000000000000000000000081565b600181565b600a5490565b600c54640100000000900463ffffffff1681565b6000806000806000803073ffffffffffffffffffffffffffffffffffffffff16600260009054906101000a900473ffffffffffffffffffffffffffffffffffffffff1673ffffffffffffffffffffffffffffffffffffffff16638da5cb5b6040518163ffffffff167c0100000000000000000000000000000000000000000000000000000000028152600401602060405180830381600087803b158015612fb157600080fd5b505af1158015612fc5573d6000803e3d6000fd5b505050506040513d6020811015612fdb57600080fd5b505173ffffffffffffffffffffffffffffffffffffffff1614612ffa57fe5b73ffffffffffffffffffffffffffffffffffffffff88166000908152600b602052604090206001015488906601000000000000900460ff16151561303d57600080fd5b73ffffffffffffffffffffffffffffffffffffffff89166000908152600b60205260409020600181015490965065010000000000900460ff16151561308157600080fd5b600260009054906101000a900473ffffffffffffffffffffffffffffffffffffffff1673ffffffffffffffffffffffffffffffffffffffff166318160ddd6040518163ffffffff167c0100000000000000000000000000000000000000000000000000000000028152600401602060405180830381600087803b15801561310757600080fd5b505af115801561311b573d6000803e3d6000fd5b505050506040513d602081101561313157600080fd5b5051945061313e896134b9565b600754604080517f21f8a7210000000000000000000000000000000000000000000000000000000081527f42616e636f72466f726d756c61000000000000000000000000000000000000006004820152905192965073ffffffffffffffffffffffffffffffffffffffff909116916321f8a721916024808201926020929091908290030181600087803b1580156131d457600080fd5b505af11580156131e8573d6000803e3d6000fd5b505050506040513d60208110156131fe57600080fd5b50516001870154604080517f29a00e7c000000000000000000000000000000000000000000000000000000008152600481018990526024810188905263ffffffff9092166044830152606482018b90525191945073ffffffffffffffffffffffffffffffffffffffff8516916329a00e7c916084808201926020929091908290030181600087803b15801561289757600080fd5b60005473ffffffffffffffffffffffffffffffffffffffff1633146132b357fe5b8073ffffffffffffffffffffffffffffffffffffffff811615156132d657600080fd5b8173ffffffffffffffffffffffffffffffffffffffff81163014156132fa57600080fd5b5050600780547fffffffffffffffffffffffff00000000000000000000000000000000000000001673ffffffffffffffffffffffffffffffffffffffff92909216919091179055565b600c546c01000000000000000000000000900460ff1681565b60085473ffffffffffffffffffffffffffffffffffffffff1681565b60045473ffffffffffffffffffffffffffffffffffffffff16331461339c57600080fd5b60045460035460405173ffffffffffffffffffffffffffffffffffffffff92831692909116907fbe4cc281795971a471c980e842627a7f1ea3892ddfce8c5b6357cd2611c1973290600090a360048054600380547fffffffffffffffffffffffff000000000000000000000000000000000000000090811673ffffffffffffffffffffffffffffffffffffffff841617909155169055565b60005473ffffffffffffffffffffffffffffffffffffffff16331461345557fe5b806002815111801561346957506015815111155b801561347a57508051600290066001145b151561348557600080fd5b815161349890600a906020850190614212565b505050565b60015473ffffffffffffffffffffffffffffffffffffffff1681565b73ffffffffffffffffffffffffffffffffffffffff81166000908152600b6020526040812060010154819083906601000000000000900460ff1615156134fe57600080fd5b73ffffffffffffffffffffffffffffffffffffffff84166000908152600b602052604090206001810154909250640100000000900460ff166135d957604080517f70a08231000000000000000000000000000000000000000000000000000000008152306004820152905173ffffffffffffffffffffffffffffffffffffffff8616916370a082319160248083019260209291908290030181600087803b1580156135a857600080fd5b505af11580156135bc573d6000803e3d6000fd5b505050506040513d60208110156135d257600080fd5b50516135dc565b81545b949350505050565b60005473ffffffffffffffffffffffffffffffffffffffff16331480613621575060035473ffffffffffffffffffffffffffffffffffffffff1633145b151561362c57600080fd5b60035473ffffffffffffffffffffffffffffffffffffffff8281169116141561365457600080fd5b600480547fffffffffffffffffffffffff00000000000000000000000000000000000000001673ffffffffffffffffffffffffffffffffffffffff92909216919091179055565b600a805482908110610de257fe5b60005473ffffffffffffffffffffffffffffffffffffffff163314806136e6575060035473ffffffffffffffffffffffffffffffffffffffff1633145b15156136f157600080fd5b8060008163ffffffff161015801561371d5750600c5463ffffffff640100000000909104811690821611155b151561372857600080fd5b600c546040805163ffffffff6801000000000000000090930483168152918416602083015280517f81cd2ffb37dd237c0e4e2a3de5265fcf9deb43d3e7801e80db9f1ccfba7ee6009281900390910190a150600c805463ffffffff90921668010000000000000000027fffffffffffffffffffffffffffffffffffffffff00000000ffffffffffffffff909216919091179055565b60005473ffffffffffffffffffffffffffffffffffffffff1633146137de57fe5b60005473ffffffffffffffffffffffffffffffffffffffff8281169116141561380657600080fd5b600180547fffffffffffffffffffffffff00000000000000000000000000000000000000001673ffffffffffffffffffffffffffffffffffffffff92909216919091179055565b600e805460408051602060026001851615610100027fffffffffffffffffffffffffffffffffffffffffffffffffffffffffffffffff0190941693909304601f81018490048402820184019092528181529291830182828015611c995780601f10611c6e57610100808354040283529160200191611c99565b60025473ffffffffffffffffffffffffffffffffffffffff1681565b6000806000806138f28787612f0b565b925082158015906139035750848310155b151561390e57600080fd5b73ffffffffffffffffffffffffffffffffffffffff87166000908152600b602052604090206001810154909250640100000000900460ff161561395a578154613957908761409a565b82555b604080517f23b872dd00000000000000000000000000000000000000000000000000000000815233600482015230602482015260448101889052905173ffffffffffffffffffffffffffffffffffffffff8916916323b872dd9160648083019260209291908290030181600087803b1580156139d557600080fd5b505af11580156139e9573d6000803e3d6000fd5b505050506040513d60208110156139ff57600080fd5b50511515613a0957fe5b600254604080517f867904b400000000000000000000000000000000000000000000000000000000815233600482015260248101869052905173ffffffffffffffffffffffffffffffffffffffff9092169163867904b49160448082019260009290919082900301818387803b158015613a8257600080fd5b505af1158015613a96573d6000803e3d6000fd5b50505050613aa98361187b856001611b99565b600254909150613ad390889073ffffffffffffffffffffffffffffffffffffffff168886856140bb565b8673ffffffffffffffffffffffffffffffffffffffff167f8a6a7f53b3c8fa1dc4b83e3f1be668c1b251ff8d44cdcb83eb3acec3fec6a788600260009054906101000a900473ffffffffffffffffffffffffffffffffffffffff1673ffffffffffffffffffffffffffffffffffffffff166318160ddd6040518163ffffffff167c0100000000000000000000000000000000000000000000000000000000028152600401602060405180830381600087803b158015613b9157600080fd5b505af1158015613ba5573d6000803e3d6000fd5b505050506040513d6020811015613bbb57600080fd5b5051613bc68a6134b9565b600186015460408051938452602084019290925263ffffffff1682820152519081900360600190a2509095945050505050565b600254604080517f70a0823100000000000000000000000000000000000000000000000000000000815233600482015290516000928392839283928392839273ffffffffffffffffffffffffffffffffffffffff909216916370a082319160248082019260209290919082900301818787803b158015613c7857600080fd5b505af1158015613c8c573d6000803e3d6000fd5b505050506040513d6020811015613ca257600080fd5b5051881115613cb057600080fd5b613cba898961255d565b94508415801590613ccb5750868510155b1515613cd657600080fd5b600260009054906101000a900473ffffffffffffffffffffffffffffffffffffffff1673ffffffffffffffffffffffffffffffffffffffff166318160ddd6040518163ffffffff167c0100000000000000000000000000000000000000000000000000000000028152600401602060405180830381600087803b158015613d5c57600080fd5b505af1158015613d70573d6000803e3d6000fd5b505050506040513d6020811015613d8657600080fd5b50519350613d93896134b9565b925082851080613dac57508285148015613dac57508388145b1515613db457fe5b73ffffffffffffffffffffffffffffffffffffffff89166000908152600b602052604090206001810154909250640100000000900460ff1615613e00578154613dfd90866140a9565b82555b600254604080517fa24835d1000000000000000000000000000000000000000000000000000000008152336004820152602481018b9052905173ffffffffffffffffffffffffffffffffffffffff9092169163a24835d19160448082019260009290919082900301818387803b158015613e7957600080fd5b505af1158015613e8d573d6000803e3d6000fd5b5050604080517fa9059cbb00000000000000000000000000000000000000000000000000000000815233600482015260248101899052905173ffffffffffffffffffffffffffffffffffffffff8d16935063a9059cbb925060448083019260209291908290030181600087803b158015613f0657600080fd5b505af1158015613f1a573d6000803e3d6000fd5b505050506040513d6020811015613f3057600080fd5b50511515613f3a57fe5b613f498561187b876001611b99565b600254909150613f729073ffffffffffffffffffffffffffffffffffffffff168a8a88856140bb565b8873ffffffffffffffffffffffffffffffffffffffff167f8a6a7f53b3c8fa1dc4b83e3f1be668c1b251ff8d44cdcb83eb3acec3fec6a788600260009054906101000a900473ffffffffffffffffffffffffffffffffffffffff1673ffffffffffffffffffffffffffffffffffffffff166318160ddd6040518163ffffffff167c0100000000000000000000000000000000000000000000000000000000028152600401602060405180830381600087803b15801561403057600080fd5b505af1158015614044573d6000803e3d6000fd5b505050506040513d602081101561405a57600080fd5b50516140658c6134b9565b600186015460408051938452602084019290925263ffffffff1682820152519081900360600190a25092979650505050505050565b600082820183811015610ea057fe5b6000818310156140b557fe5b50900390565b7f80000000000000000000000000000000000000000000000000000000000000008111156140e557fe5b60408051848152602081018490528082018390529051339173ffffffffffffffffffffffffffffffffffffffff87811692908916917f276856b36cbc45526a0ba64f44611557a2a8b68662c5388e9fe6d72e86e1c8cb919081900360600190a45050505050565b6000828202831580614168575082848281151561416557fe5b04145b1515610ea057fe5b828054600181600116156101000203166002900490600052602060002090601f016020900481019282601f106141b157805160ff19168380011785556141de565b828001600101855582156141de579182015b828111156141de5782518255916020019190600101906141c3565b506141ea929150614298565b5090565b81548183558181111561349857600083815260209020613498918101908301614298565b82805482825590600052602060002090810192821561428c579160200282015b8281111561428c57825182547fffffffffffffffffffffffff00000000000000000000000000000000000000001673ffffffffffffffffffffffffffffffffffffffff909116178255602090920191600190910190614232565b506141ea9291506142b2565b61255a91905b808211156141ea576000815560010161429e565b61255a91905b808211156141ea5780547fffffffffffffffffffffffff00000000000000000000000000000000000000001681556001016142b85600a165627a7a723058205a911d23a99d93373935989d76ddd5f105ba420f2bf0a382805ab5a190c93fe00029a165627a7a7230582086b99f8220b5031265052a1d3d41d63ecf54506b0b6f7484ed96c804ea33a81b0029",
  "source": "pragma solidity ^0.4.21;\nimport './BancorConverter.sol';\nimport './interfaces/IBancorConverterFactory.sol';\nimport '../utility/interfaces/IContractRegistry.sol';\n\n/*\n    Bancor Converter Factory\n*/\ncontract BancorConverterFactory is IBancorConverterFactory {\n    // triggered when a new converter is created\n    event NewConverter(address indexed _converter, address indexed _owner);\n\n    /**\n        @dev constructor\n    */\n    function BancorConverterFactory() public {\n    }\n\n    /**\n        @dev creates a new converter with the given arguments and transfers\n        the ownership and management to the sender.\n\n        @param  _token              smart token governed by the converter\n        @param  _registry           address of a contract registry contract\n        @param  _maxConversionFee   maximum conversion fee, represented in ppm\n        @param  _connectorToken     optional, initial connector, allows defining the first connector at deployment time\n        @param  _connectorWeight    optional, weight for the initial connector\n\n        @return a new converter\n    */\n    function createConverter(\n        ISmartToken _token,\n        IContractRegistry _registry,\n        uint32 _maxConversionFee,\n        IERC20Token _connectorToken,\n        uint32 _connectorWeight\n    ) public returns(address converterAddress) {\n        BancorConverter converter = new BancorConverter(\n            _token,\n            _registry,\n            _maxConversionFee,\n            _connectorToken,\n            _connectorWeight\n        );\n\n        converter.transferOwnership(msg.sender);\n        converter.transferManagement(msg.sender);\n\n        address _converterAddress = address(converter);\n        emit NewConverter(_converterAddress, msg.sender);\n        return _converterAddress;\n    }\n}\n",
  "sourcePath": "D:\\Workshop\\NodeSpace\\bancor\\contracts\\converter\\BancorConverterFactory.sol",
  "compiler": {
    "name": "solc",
    "version": "0.4.24+commit.e67f0147.Emscripten.clang"
  },
  "schemaVersion": "2.0.1",
  "updatedAt": "2018-11-20T09:52:36.860Z"
}