{
  "contractName": "ContractIds",
  "abi": [
    {
      "constant": true,
      "inputs": [],
      "name": "BANCOR_FORMULA",
      "outputs": [
        {
          "name": "",
          "type": "bytes32"
        }
      ],
      "payable": false,
      "stateMutability": "view",
      "type": "function"
    },
    {
      "constant": true,
      "inputs": [],
      "name": "CONTRACT_FEATURES",
      "outputs": [
        {
          "name": "",
          "type": "bytes32"
        }
      ],
      "payable": false,
      "stateMutability": "view",
      "type": "function"
    },
    {
      "constant": true,
      "inputs": [],
      "name": "BANCOR_NETWORK",
      "outputs": [
        {
          "name": "",
          "type": "bytes32"
        }
      ],
      "payable": false,
      "stateMutability": "view",
      "type": "function"
    }
  ],
  "bytecode": "0x608060405234801561001057600080fd5b50610144806100206000396000f3006080604052600436106100565763ffffffff7c01000000000000000000000000000000000000000000000000000000006000350416636d7bd3fc811461005b57806383315b6e146100825780639232494e14610097575b600080fd5b34801561006757600080fd5b506100706100ac565b60408051918252519081900360200190f35b34801561008e57600080fd5b506100706100d0565b3480156100a357600080fd5b506100706100f4565b7f42616e636f72466f726d756c610000000000000000000000000000000000000081565b7f436f6e747261637446656174757265730000000000000000000000000000000081565b7f42616e636f724e6574776f726b00000000000000000000000000000000000000815600a165627a7a7230582048b41ab66a3518ba17504daddf8de807cf3504bfeac267eb421fe583daeaaa470029",
  "source": "pragma solidity ^0.4.21;\n\n/**\n    Id definitions for bancor contracts\n\n    Can be used in conjunction with the contract registry to get contract addresses\n*/\ncontract ContractIds {\n    bytes32 public constant BANCOR_NETWORK = \"BancorNetwork\";\n    bytes32 public constant BANCOR_FORMULA = \"BancorFormula\";\n    bytes32 public constant CONTRACT_FEATURES = \"ContractFeatures\";\n}\n",
  "sourcePath": "D:\\Workshop\\NodeSpace\\bancor\\contracts\\ContractIds.sol",
  "compiler": {
    "name": "solc",
    "version": "0.4.24+commit.e67f0147.Emscripten.clang"
  },
  "schemaVersion": "2.0.1",
  "updatedAt": "2018-11-20T09:52:36.858Z"
}