{
  "contractName": "TestBancorFormula",
  "abi": [
    {
      "constant": true,
      "inputs": [
        {
          "name": "_supply",
          "type": "uint256"
        },
        {
          "name": "_connectorBalance",
          "type": "uint256"
        },
        {
          "name": "_connectorWeight",
          "type": "uint32"
        },
        {
          "name": "_depositAmount",
          "type": "uint256"
        }
      ],
      "name": "calculatePurchaseReturn",
      "outputs": [
        {
          "name": "",
          "type": "uint256"
        }
      ],
      "payable": false,
      "stateMutability": "view",
      "type": "function"
    },
    {
      "constant": true,
      "inputs": [
        {
          "name": "_supply",
          "type": "uint256"
        },
        {
          "name": "_connectorBalance",
          "type": "uint256"
        },
        {
          "name": "_connectorWeight",
          "type": "uint32"
        },
        {
          "name": "_sellAmount",
          "type": "uint256"
        }
      ],
      "name": "calculateSaleReturn",
      "outputs": [
        {
          "name": "",
          "type": "uint256"
        }
      ],
      "payable": false,
      "stateMutability": "view",
      "type": "function"
    },
    {
      "constant": true,
      "inputs": [],
      "name": "version",
      "outputs": [
        {
          "name": "",
          "type": "string"
        }
      ],
      "payable": false,
      "stateMutability": "view",
      "type": "function"
    },
    {
      "constant": false,
      "inputs": [
        {
          "name": "_version",
          "type": "string"
        }
      ],
      "name": "changeVersion",
      "outputs": [
        {
          "name": "",
          "type": "string"
        }
      ],
      "payable": false,
      "stateMutability": "nonpayable",
      "type": "function"
    },
    {
      "constant": true,
      "inputs": [
        {
          "name": "_fromConnectorBalance",
          "type": "uint256"
        },
        {
          "name": "_fromConnectorWeight",
          "type": "uint32"
        },
        {
          "name": "_toConnectorBalance",
          "type": "uint256"
        },
        {
          "name": "_toConnectorWeight",
          "type": "uint32"
        },
        {
          "name": "_amount",
          "type": "uint256"
        }
      ],
      "name": "calculateCrossConnectorReturn",
      "outputs": [
        {
          "name": "",
          "type": "uint256"
        }
      ],
      "payable": false,
      "stateMutability": "view",
      "type": "function"
    },
    {
      "inputs": [],
      "payable": false,
      "stateMutability": "nonpayable",
      "type": "constructor"
    },
    {
      "anonymous": false,
      "inputs": [
        {
          "indexed": false,
          "name": "index",
          "type": "string"
        }
      ],
      "name": "AlexF",
      "type": "event"
    },
    {
      "constant": true,
      "inputs": [
        {
          "name": "_baseN",
          "type": "uint256"
        },
        {
          "name": "_baseD",
          "type": "uint256"
        },
        {
          "name": "_expN",
          "type": "uint32"
        },
        {
          "name": "_expD",
          "type": "uint32"
        }
      ],
      "name": "powerTest",
      "outputs": [
        {
          "name": "",
          "type": "uint256"
        },
        {
          "name": "",
          "type": "uint8"
        }
      ],
      "payable": false,
      "stateMutability": "view",
      "type": "function"
    },
    {
      "constant": true,
      "inputs": [
        {
          "name": "x",
          "type": "uint256"
        }
      ],
      "name": "generalLogTest",
      "outputs": [
        {
          "name": "",
          "type": "uint256"
        }
      ],
      "payable": false,
      "stateMutability": "pure",
      "type": "function"
    },
    {
      "constant": true,
      "inputs": [
        {
          "name": "_n",
          "type": "uint256"
        }
      ],
      "name": "floorLog2Test",
      "outputs": [
        {
          "name": "",
          "type": "uint8"
        }
      ],
      "payable": false,
      "stateMutability": "pure",
      "type": "function"
    },
    {
      "constant": true,
      "inputs": [
        {
          "name": "_x",
          "type": "uint256"
        }
      ],
      "name": "findPositionInMaxExpArrayTest",
      "outputs": [
        {
          "name": "",
          "type": "uint8"
        }
      ],
      "payable": false,
      "stateMutability": "view",
      "type": "function"
    },
    {
      "constant": true,
      "inputs": [
        {
          "name": "_x",
          "type": "uint256"
        },
        {
          "name": "_precision",
          "type": "uint8"
        }
      ],
      "name": "generalExpTest",
      "outputs": [
        {
          "name": "",
          "type": "uint256"
        }
      ],
      "payable": false,
      "stateMutability": "pure",
      "type": "function"
    },
    {
      "constant": true,
      "inputs": [
        {
          "name": "x",
          "type": "uint256"
        }
      ],
      "name": "optimalLogTest",
      "outputs": [
        {
          "name": "",
          "type": "uint256"
        }
      ],
      "payable": false,
      "stateMutability": "pure",
      "type": "function"
    },
    {
      "constant": true,
      "inputs": [
        {
          "name": "x",
          "type": "uint256"
        }
      ],
      "name": "optimalExpTest",
      "outputs": [
        {
          "name": "",
          "type": "uint256"
        }
      ],
      "payable": false,
      "stateMutability": "pure",
      "type": "function"
    }
  ],
  "bytecode": "0x60c0604052600360808190527f302e33000000000000000000000000000000000000000000000000000000000060a0908152620000409160009190620007f7565b503480156200004e57600080fd5b506001606060020a641c35fedd1502036021556001605e60020a646c3390ecc902036022556001606160020a640cf801476102036023556001605f60020a6431bdb23e1d02036024556001605b60020a6502fb1d8fe08302036025556001605a60020a6505b771955b3702036026556001605960020a650af67a93bb5102036027556001605860020a6515060c256cb302036028556001605860020a651428a2f98d7302036029556001605660020a654d51566397090203602a556001605560020a65944620b0e70f0203602b557011c592761c666fffffffffffffffffffff602c5570110a688680a757ffffffffffffffffffff602d55701056f1b5bedf77ffffffffffffffffffff602e55700faadceceeff8bffffffffffffffffffff602f55700f05dc6b27edadffffffffffffffffffff603055700e67a5a25da4107fffffffffffffffffff603155700dcff115b14eedffffffffffffffffffff603255700d3e7a392431239fffffffffffffffffff603355700cb2ff529eb71e4fffffffffffffffffff603455700c2d415c3db974afffffffffffffffffff603555700bad03e7d883f69bffffffffffffffffff603655700b320d03b2c343d5ffffffffffffffffff603755700abc25204e02828dffffffffffffffffff603855700a4b16f74ee4bb207fffffffffffffffff6039557009deaf736ac1f569ffffffffffffffffff603a55700976bd9952c7aa957fffffffffffffffff603b557009131271922eaa606fffffffffffffffff603c557008b380f3558668c46fffffffffffffffff603d55700857ddf0117efa215bffffffffffffffff603e556001608360020a03603f557007abbf6f6abb9d087fffffffffffffffff60405570075af62cbac95f7dfa7fffffffffffffff60415570070d7fb7452e187ac13fffffffffffffff6042557006c3390ecc8af379295fffffffffffffff60435570067c00a3b07ffc01fd6fffffffffffffff604455700637b647c39cbb9d3d27ffffffffffffff6045557005f63b1fc104dbd39587ffffffffffffff6046557005b771955b36e12f7235ffffffffffffff60475570057b3d49dda84556d6f6ffffffffffffff60485570054183095b2c8ececf30ffffffffffffff60495570050a28be635ca2b888f77fffffffffffff604a557004d5156639708c9db33c3fffffffffffff604b557004a23105873875bd52dfdfffffffffffff604c55700471649d87199aa990756fffffffffffff604d557004429a21a029d4c1457cfbffffffffffff604e55700415bc6d6fb7dd71af2cb3ffffffffffff604f557003eab73b3bbfe282243ce1ffffffffffff6050557003c1771ac9fb6b4c18e229ffffffffffff605155700399e96897690418f785257fffffffffff605255700373fc456c53bb779bf0ea9fffffffffff60535570034f9e8e490c48e67e6ab8bfffffffffff60545570032cbfd4a7adc790560b3337ffffffffff60555570030b50570f6e5d2acca94613ffffffffff6056557002eb40f9f620fda6b56c2861ffffffffff6057557002cc8340ecb0d0f520a6af58ffffffffff6058557002af09481380a0a35cf1ba02ffffffffff605955700292c5bdd3b92ec810287b1b3fffffffff605a55700277abdcdab07d5a77ac6d6b9fffffffff605b5570025daf6654b1eaa55fd64df5efffffffff605c55700244c49c648baa98192dce88b7ffffffff605d5570022ce03cd5619a311b2471268bffffffff605e55700215f77c045fbe885654a44a0fffffffff605f556001608160020a036060557001eaefdbdaaee7421fc4d3ede5ffffffff6061557001d6bd8b2eb257df7e8ca57b09bfffffff6062557001c35fedd14b861eb0443f7f133fffffff6063557001b0ce43b322bcde4a56e8ada5afffffff60645570019f0028ec1fff007f5a195a39dfffffff60655570018ded91f0e72ee74f49b15ba527ffffff60665570017d8ec7f04136f4e5615fd41a63ffffff60675570016ddc6556cdb84bdc8d12d22e6fffffff60685570015ecf52776a1155b5bd8395814f7fffff60695570015060c256cb23b3b3cc3754cf40ffffff606a557001428a2f98d728ae223ddab715be3fffff606b5570013545598e5c23276ccf0ede68034fffff606c557001288c4161ce1d6f54b7f61081194fffff606d5570011c592761c666aa641d5a01a40f17ffff606e55700110a688680a7530515f3e6e6cfdcdffff606f557001056f1b5bedf75c6bcb2ce8aed428ffff6070556ffaadceceeff8a0890f3875f008277fff6071556ff05dc6b27edad306388a600f6ba0bfff6072556fe67a5a25da41063de1495d5b18cdbfff6073556fdcff115b14eedde6fc3aa5353f2e4fff6074556fd3e7a3924312399f9aae2e0f868f8fff6075556fcb2ff529eb71e41582cccd5a1ee26fff6076556fc2d415c3db974ab32a51840c0b67edff6077556fbad03e7d883f69ad5b0a186184e06bff6078556fb320d03b2c343d4829abd6075f0cc5ff6079556fabc25204e02828d73c6e80bcdb1a95bf607a556fa4b16f74ee4bb2040a1ec6c15fbbf2df607b556f9deaf736ac1f569deb1b5ae3f36c130f607c556f976bd9952c7aa957f5937d790ef65037607d556f9131271922eaa6064b73a22d0bd4f2bf607e556f8b380f3558668c46c91c49a2f8e967b9607f556f857ddf0117efa215952912839f6473e66080556200089c565b828054600181600116156101000203166002900490600052602060002090601f016020900481019282601f106200083a57805160ff19168380011785556200086a565b828001600101855582156200086a579182015b828111156200086a5782518255916020019190600101906200084d565b50620008789291506200087c565b5090565b6200089991905b8082111562000878576000815560010162000883565b90565b611a7a80620008ac6000396000f3006080604052600436106100b95763ffffffff7c010000000000000000000000000000000000000000000000000000000060003504166329a00e7c81146100be5780633e8a38ab146100f75780634982d52d1461010f57806349f9b0f71461012757806354fd4d501461014e57806364bb432c146101d857806365098bb3146102315780636cab50551461025f5780638c5ce82a1461027d578063a25a34b1146102c2578063acdee8cb146102f0578063ce782e0814610308575b600080fd5b3480156100ca57600080fd5b506100e560043560243563ffffffff60443516606435610320565b60408051918252519081900360200190f35b34801561010357600080fd5b506100e56004356103ee565b34801561011b57600080fd5b506100e56004356103ff565b34801561013357600080fd5b506100e560043560243563ffffffff6044351660643561040a565b34801561015a57600080fd5b506101636104fb565b6040805160208082528351818301528351919283929083019185019080838360005b8381101561019d578181015183820152602001610185565b50505050905090810190601f1680156101ca5780820380516001836020036101000a031916815260200191505b509250505060405180910390f35b3480156101e457600080fd5b506040805160206004803580820135601f81018490048402850184019095528484526101639436949293602493928401919081908401838280828437509497506105a79650505050505050565b34801561023d57600080fd5b506100e560043563ffffffff6024358116906044359060643516608435610706565b34801561026b57600080fd5b506100e560043560ff60243516610803565b34801561028957600080fd5b506102a760043560243563ffffffff60443581169060643516610816565b6040805192835260ff90911660208301528051918290030190f35b3480156102ce57600080fd5b506102da600435610832565b6040805160ff9092168252519081900360200190f35b3480156102fc57600080fd5b506100e560043561083d565b34801561031457600080fd5b506102da600435610848565b600080600080600080891180156103375750600088115b8015610349575060008763ffffffff16115b801561035e5750620f424063ffffffff881611155b151561036957600080fd5b85151561037957600094506103e2565b63ffffffff8716620f424014156103a657876103958a88610853565b81151561039e57fe5b0494506103e2565b6103b08689610877565b91506103c1828989620f4240610886565b909450925060ff83166103d48a86610853565b9060020a9004905088810394505b50505050949350505050565b60006103f982610979565b92915050565b60006103f982610e6d565b60008060008060008060008a1180156104235750600089115b8015610435575060008863ffffffff16115b801561044a5750620f424063ffffffff891611155b80156104565750898711155b151561046157600080fd5b86151561047157600095506104ee565b89871415610481578895506104ee565b63ffffffff8816620f424014156104ae578961049d8a89610853565b8115156104a657fe5b0495506104ee565b868a0392506104c28a84620f42408b610886565b90955093506104d18986610853565b91505060ff831660020a8802848183038115156104ea57fe5b0495505b5050505050949350505050565b6000805460408051602060026001851615610100027fffffffffffffffffffffffffffffffffffffffffffffffffffffffffffffffff0190941693909304601f8101849004840282018401909252818152929183018282801561059f5780601f106105745761010080835404028352916020019161059f565b820191906000526020600020905b81548152906001019060200180831161058257829003601f168201915b505050505081565b60607fbdfc63f9456b93eb6d1d11613d7c8c26e4de6b4713f17a325dc7b51d2c7e4976826040518080602001828103825283818151815260200191508051906020019080838360005b838110156106085781810151838201526020016105f0565b50505050905090810190601f1680156106355780820380516001836020036101000a031916815260200191505b509250505060405180910390a181516106559060009060208501906119b3565b506000805460408051602060026001851615610100027fffffffffffffffffffffffffffffffffffffffffffffffffffffffffffffffff0190941693909304601f810184900484028201840190925281815292918301828280156106fa5780601f106106cf576101008083540402835291602001916106fa565b820191906000526020600020905b8154815290600101906020018083116106dd57829003601f168201915b50505050509050919050565b60008060008060008060008b118015610725575060008a63ffffffff16115b801561073a5750620f424063ffffffff8b1611155b80156107465750600089115b8015610758575060008863ffffffff16115b801561076d5750620f424063ffffffff891611155b151561077857600080fd5b8763ffffffff168a63ffffffff1614156107b1576107968b88610877565b6107a08a89610853565b8115156107a957fe5b0495506107f5565b6107bb8b88610877565b92506107c9838c8c8b610886565b90955093506107d88986610853565b91505060ff831660020a8802848183038115156107f157fe5b0495505b505050505095945050505050565b600061080f8383610fac565b9392505050565b60008061082586868686610886565b9150915094509492505050565b60006103f9826113cf565b60006103f98261145e565b60006103f982611943565b600082820283158061086f575082848281151561086c57fe5b04145b151561080f57fe5b60008282018381101561080f57fe5b600080808080807002000000000000000000000000000000008a106108a757fe5b886f800000000000000000000000000000008b028115156108c457fe5b04925070015bf0a8b1457695355fb8ac404e7a79e38310156108f0576108e983610979565b93506108fc565b6108f983610e6d565b93505b8663ffffffff168863ffffffff16850281151561091557fe5b0491507008000000000000000000000000000000008210156109455761093a8261145e565b607f9550955061096c565b61094e826113cf565b905061096660ff607f8390031660020a830482610fac565b81955095505b5050505094509492505050565b6000808080806fd3094c70f034de4b96ff7d5b6f99fcd886106109d4576f4000000000000000000000000000000093909301926fd3094c70f034de4b96ff7d5b6f99fcd86f8000000000000000000000000000000087020495505b6fa45af1e1f40c333b3de1db4dd55f29a78610610a29576f2000000000000000000000000000000093909301926fa45af1e1f40c333b3de1db4dd55f29a76f8000000000000000000000000000000087020495505b6f910b022db7ae67ce76b441c27035c6a18610610a7e576f1000000000000000000000000000000093909301926f910b022db7ae67ce76b441c27035c6a16f8000000000000000000000000000000087020495505b6f88415abbe9a76bead8d00cf112e4d4a88610610ad3576f0800000000000000000000000000000093909301926f88415abbe9a76bead8d00cf112e4d4a86f8000000000000000000000000000000087020495505b6f84102b00893f64c705e841d5d4064bd38610610b28576f0400000000000000000000000000000093909301926f84102b00893f64c705e841d5d4064bd36f8000000000000000000000000000000087020495505b6f8204055aaef1c8bd5c3259f4822735a28610610b7d576f0200000000000000000000000000000093909301926f8204055aaef1c8bd5c3259f4822735a26f8000000000000000000000000000000087020495505b6f810100ab00222d861931c15e39b44e998610610bd2576f0100000000000000000000000000000093909301926f810100ab00222d861931c15e39b44e996f8000000000000000000000000000000087020495505b6f808040155aabbbe9451521693554f7338610610c26576e80000000000000000000000000000093909301926f808040155aabbbe9451521693554f7336f8000000000000000000000000000000087020495505b7fffffffffffffffffffffffffffffffff80000000000000000000000000000000860192508291506f8000000000000000000000000000000082800204905070010000000000000000000000000000000083810383020493909301926f800000000000000000000000000000008282020491507002000000000000000000000000000000006faaaaaaaaaaaaaaaaaaaaaaaaaaaaaaaa84900383020493909301926f800000000000000000000000000000008282020491507003000000000000000000000000000000006f9999999999999999999999999999999984900383020493909301926f800000000000000000000000000000008282020491507004000000000000000000000000000000006f9249249249249249249249249249249284900383020493909301926f800000000000000000000000000000008282020491507005000000000000000000000000000000006f8e38e38e38e38e38e38e38e38e38e38e84900383020493909301926f800000000000000000000000000000008282020491507006000000000000000000000000000000006f8ba2e8ba2e8ba2e8ba2e8ba2e8ba2e8b84900383020493909301926f800000000000000000000000000000008282020491507007000000000000000000000000000000006f89d89d89d89d89d89d89d89d89d89d8984900383020493909301926f800000000000000000000000000000008282020491507008000000000000000000000000000000006f888888888888888888888888888888888490038302049390930195945050505050565b60008080807001000000000000000000000000000000008510610ec957610ea56f800000000000000000000000000000008604611943565b60ff8116600281900a909604956f8000000000000000000000000000000002935091505b6f80000000000000000000000000000000851115610f7c5750607f5b60008160ff161115610f7c576f800000000000000000000000000000008580020494507001000000000000000000000000000000008510610f55576002948590049460ff7fffffffffffffffffffffffffffffffffffffffffffffffffffffffffffffffff830116900a92909201915b7fffffffffffffffffffffffffffffffffffffffffffffffffffffffffffffffff01610ee5565b6f05b9de1d10bf4103d647b0955897ba806f03f80fe03f80fe03f80fe03f80fe03f884020493505b505050919050565b6000806000849150600090508360ff168583029060020a90049150816f03442c4e6074a82f1797f72ac000000002810190508360ff168583029060020a90049150816f0116b96f757c380fb287fd0e4000000002810190508360ff168583029060020a90049150816e45ae5bdd5f0e03eca1ff439000000002810190508360ff168583029060020a90049150816e0defabf91302cd95b9ffda5000000002810190508360ff168583029060020a90049150816e02529ca9832b22439efff9b800000002810190508360ff168583029060020a90049150816d54f1cf12bd04e516b6da8800000002810190508360ff168583029060020a90049150816d0a9e39e257a09ca2d6db5100000002810190508360ff168583029060020a90049150816d012e066e7b839fa050c30900000002810190508360ff168583029060020a90049150816c1e33d7d926c329a1ad1a80000002810190508360ff168583029060020a90049150816c02bee513bdb4a6b19b5f80000002810190508360ff168583029060020a90049150816b3a9316fa79b88eccf2a0000002810190508360ff168583029060020a90049150816b048177ebe1fa81237520000002810190508360ff168583029060020a90049150816a5263fe90242dcbacf0000002810190508360ff168583029060020a90049150816a057e22099c030d9410000002810190508360ff168583029060020a90049150816957e22099c030d941000002810190508360ff168583029060020a900491508169052b6b5456997631000002810190508360ff168583029060020a9004915081684985f67696bf74800002810190508360ff168583029060020a90049150816803dea12ea99e49800002810190508360ff168583029060020a90049150816731880f2214b6e00002810190508360ff168583029060020a900491508167025bcff56eb3600002810190508360ff168583029060020a9004915081661b722e10ab100002810190508360ff168583029060020a90049150816601317c7007700002810190508360ff168583029060020a9004915081650cba84aafa0002810190508360ff168583029060020a90049150816482573a0a0002810190508360ff168583029060020a90049150816405035ad90002810190508360ff168583029060020a9004915081632f881b0002810190508360ff168583029060020a90049150816301b2934002810190508360ff168583029060020a9004915081620efc4002810190508360ff168583029060020a9004915081617fe002810190508360ff168583029060020a900491508161042002810190508360ff168583029060020a9004915081602102810190508360ff168583029060020a9004915081600102810190508360ff1660019060020a02856f0688589cc0e9505e2f2fee5580000000838115156113c357fe5b04010195945050505050565b60006020607f825b8160ff168360010160ff16101561141c57600260ff8484011604905084600160ff83166080811061140457fe5b01541061141357809250611417565b8091505b6113d7565b84600160ff84166080811061142d57fe5b01541061143c57819350610fa4565b84600160ff85166080811061144d57fe5b01541061145c57829350610fa4565bfe5b6000670168244fdac780006f800000000000000000000000000000006f0fffffffffffffffffffffffffffffff84168080028290048082028390048083028490049485026710e1b3be415a00009092026705a0913f6b1e000091909102010192909181830204905080664807432bc1800002830192506f800000000000000000000000000000008282028115156114f157fe5b04905080660c0135dca0400002830192506f8000000000000000000000000000000082820281151561151f57fe5b049050806601b707b1cdc00002830192506f8000000000000000000000000000000082820281151561154d57fe5b049050806536e0f639b80002830192506f8000000000000000000000000000000082820281151561157a57fe5b04905080650618fee9f80002830192506f800000000000000000000000000000008282028115156115a757fe5b04905080649c197dcc0002830192506f800000000000000000000000000000008282028115156115d357fe5b04905080640e30dce40002830192506f800000000000000000000000000000008282028115156115ff57fe5b0490508064012ebd130002830192506f8000000000000000000000000000000082820281151561162b57fe5b049050806317499f0002830192506f8000000000000000000000000000000082820281151561165657fe5b049050806301a9d48002830192506f8000000000000000000000000000000082820281151561168157fe5b04905080621c638002830192506f800000000000000000000000000000008282028115156116ab57fe5b049050806201c63802830192506f800000000000000000000000000000008282028115156116d557fe5b04905080611ab802830192506f800000000000000000000000000000008282028115156116fe57fe5b0490508061017c02830192506f8000000000000000000000000000000082820281151561172757fe5b04905080601402830192506f8000000000000000000000000000000082820281151561174f57fe5b6721c3677c82b400009190049384010482016f80000000000000000000000000000000019290506f100000000000000000000000000000008516156117b85770018ebef9eac820ae8682b9793ac6d1e7767001c3d6a24ed82218787d624d3e5eba95f984020492505b6f200000000000000000000000000000008516156117fa577001368b2fc6f9609fe7aceb46aa619baed470018ebef9eac820ae8682b9793ac6d1e77884020492505b6f4000000000000000000000000000000085161561183b576fbc5ab1b16779be3575bd8f0520a9f21f7001368b2fc6f9609fe7aceb46aa619baed584020492505b6f8000000000000000000000000000000085161561187b576f454aaa8efe072e7f6ddbab84b40a55c96fbc5ab1b16779be3575bd8f0520a9f21e84020492505b7001000000000000000000000000000000008516156118bc576f0960aadc109e7a3bf4578099615711ea6f454aaa8efe072e7f6ddbab84b40a55c584020492505b7002000000000000000000000000000000008516156118fc576e2bf84208204f5977f9a8cf01fdce3d6f0960aadc109e7a3bf4578099615711d784020492505b70040000000000000000000000000000000085161561193a576d03c6ab775dd0b95b4cbee7e65d116e2bf84208204f5977f9a8cf01fdc30784020492505b50909392505050565b60008080610100841015611972575b600184111561196d5760029093049260019190910190611952565b6119ac565b5060805b60008160ff1611156119ac5760ff811660020a841061199f5760ff811660020a90930492908117905b600260ff90911604611976565b5092915050565b828054600181600116156101000203166002900490600052602060002090601f016020900481019282601f106119f457805160ff1916838001178555611a21565b82800160010185558215611a21579182015b82811115611a21578251825591602001919060010190611a06565b50611a2d929150611a31565b5090565b611a4b91905b80821115611a2d5760008155600101611a37565b905600a165627a7a7230582086c2ab53e2c7c3684d9e7bcbdb11d6ff7d70bb0524d19fceb881ad2d005bc6130029",
  "source": "pragma solidity ^0.4.21;\nimport '../converter/BancorFormula.sol';\n\n/*\n    BancorFormula test helper that exposes some BancorFormula functions\n*/\ncontract TestBancorFormula is BancorFormula {\n    function TestBancorFormula() public {\n    }\n\n    function powerTest(uint256 _baseN, uint256 _baseD, uint32 _expN, uint32 _expD) external view returns (uint256, uint8) {\n        return super.power(_baseN, _baseD, _expN, _expD);\n    }\n\n    function generalLogTest(uint256 x) external pure returns (uint256) {\n        return super.generalLog(x);\n    }\n\n    function floorLog2Test(uint256 _n) external pure returns (uint8) {\n        return super.floorLog2(_n);\n    }\n\n    function findPositionInMaxExpArrayTest(uint256 _x) external view returns (uint8) {\n        return super.findPositionInMaxExpArray(_x);\n    }\n\n    function generalExpTest(uint256 _x, uint8 _precision) external pure returns (uint256) {\n        return super.generalExp(_x, _precision);\n    }\n\n    function optimalLogTest(uint256 x) external pure returns (uint256) {\n        return super.optimalLog(x);\n    }\n\n    function optimalExpTest(uint256 x) external pure returns (uint256) {\n        return super.optimalExp(x);\n    }\n}\n",
  "sourcePath": "D:\\Workshop\\NodeSpace\\bancor\\contracts\\helpers\\TestBancorFormula.sol",
  "compiler": {
    "name": "solc",
    "version": "0.4.24+commit.e67f0147.Emscripten.clang"
  },
  "schemaVersion": "2.0.1",
  "updatedAt": "2018-11-20T02:20:36.367Z"
}